:02000004085F93
:1090000000905F08FCFF5F080000060020000501DB
:0890100004010D17000000002F
:109018001348144908B5884205D0134A824202D041
:10902800124B121A98471248124A0021124B121A70
:10903800984712481249884205D0124A824202D003
:109048000A4B121A984710481049884205D0104A0E
:10905800824202D0054B121A9847014808BD00BF4A
:10906800C0A7071060F45F0878AC07102D0D111029
:1090780078AC0710FCAF0710A10E1110409C3F02FE
:10908800A8905F08489C3F02489C3F02B0905F0848
:0C909800F8FF3F0219905F080000000084
:0890A8009C905F0888F03F0274
:1090B00081F0004102E000BF83F0004330B54FEA89
:1090C00041044FEA430594EA050F08BF90EA020FF6
:1090D0001FBF54EA000C55EA020C7FEA645C7FEA89
:1090E000655C00F0E2804FEA5454D4EB5555B8BFAC
:1090F0006D420CDD2C4480EA020281EA030382EA1D
:10910000000083EA010180EA020281EA0303362DAE
:1091100088BF30BD11F0004F4FEA01314FF4801C81
:109120004CEA113102D0404261EB410113F0004F93
:109130004FEA03334CEA133302D0524263EB43034A
:1091400094EA050F00F0A780A4F10104D5F1200EE8
:109150000DDB02FA0EFC22FA05F2801841F1000143
:1091600003FA0EF2801843FA05F359410EE0A5F117
:1091700020050EF1200E012A03FA0EFC28BF4CF048
:10918000020C43FA05F3C01851EBE37101F00045FE
:1091900007D54FF0000EDCF1000C7EEB00006EEB0B
:1091A0000101B1F5801F1BD3B1F5001F0CD3490895
:1091B0005FEA30004FEA3C0C04F101044FEA4452EC
:1091C00012F5800F80F09A80BCF1004F08BF5FEA73
:1091D000500C50F1000041EB045141EA050130BD53
:1091E0005FEA4C0C404141EB0101013C28BFB1F565
:1091F000801FE9D291F0000F04BF01460020B1FAB0
:1092000081F308BF2033A3F10B03B3F120020CDA82
:109210000C3208DD02F1140CC2F10C0201FA0CF060
:1092200021FA02F10CE002F11402D8BFC2F1200CC5
:1092300001FA02F120FA0CFCDCBF41EA0C0190407B
:10924000E41AA2BF01EB0451294330BD6FEA0404C4
:109250001F3C1CDA0C340EDC04F11404C4F12002AF
:1092600020FA04F001FA02F340EA030021FA04F3C1
:1092700045EA030130BDC4F10C04C4F1200220FA18
:1092800002F001FA04F340EA0300294630BD21FA56
:1092900004F0294630BD94F0000F83F4801306BF1C
:1092A00081F480110134013D4EE77FEA645C18BF10
:1092B0007FEA655C29D094EA050F08BF90EA020FA7
:1092C00005D054EA000C04BF1946104630BD91EA9F
:1092D000030F1EBF0021002030BD5FEA545C05D1A2
:1092E0004000494128BF41F0004130BD14F58004E1
:1092F0003CBF01F5801130BD01F0004545F0FE4155
:1093000041F470014FF0000030BD7FEA645C1ABF89
:10931000194610467FEA655C1CBF0B46024650EAC0
:10932000013406BF52EA033591EA030F41F40021EC
:1093300030BD00BF90F0000F04BF0021704730B572
:109340004FF4806404F132044FF000054FF0000147
:1093500050E700BF90F0000F04BF0021704730B508
:109360004FF4806404F1320410F0004548BF4042DD
:109370004FF000013EE700BF42004FEAE2014FEA32
:1093800031014FEA02701FBF12F07F4393F07F4F0D
:1093900081F06051704732F07F4208BF704793F010
:1093A0007F4F04BF41F40021704730B54FF4607423
:1093B00001F0004521F000411CE700BF50EA010226
:1093C00008BF704730B54FF000050AE050EA0102CF
:1093D00008BF704730B511F0004502D5404261EB3F
:1093E00041014FF4806404F132045FEA915C3FF480
:1093F000D8AE4FF003025FEADC0C18BF03325FEA1D
:10940000DC0C18BF033202EBDC02C2F1200300FACD
:1094100003FC20FA02F001FA03FE40EA0E0021FAF2
:1094200002F11444BDE600BF70B54FF0FF0C4CF4E0
:10943000E06C1CEA11541DBF1CEA135594EA0C0F92
:1094400095EA0C0F00F0DEF82C4481EA030621EACD
:109450004C5123EA4C5350EA013518BF52EA033508
:1094600041F4801143F4801338D0A0FB02CE4FF0BA
:109470000005E1FB02E506F00042E0FB03E54FF0EA
:109480000006E1FB03569CF0000F18BF4EF0010EE2
:10949000A4F1FF04B6F5007F64F5407404D25FEADE
:1094A0004E0E6D4146EB060642EAC62141EA555191
:1094B0004FEAC52040EA5E504FEACE2EB4F1FD0CD3
:1094C00088BFBCF5E06F1ED8BEF1004F08BF5FEA51
:1094D000500E50F1000041EB045170BD06F0004603
:1094E00046EA010140EA020081EA0301B4EB5C04B0
:1094F000C2BFD4EB0C0541EA045170BD41F48011A8
:109500004FF0000E013C00F3AB8014F1360FDEBFCC
:10951000002001F0004170BDC4F10004203C35DAA8
:109520000C341BDC04F11404C4F1200500FA05F32B
:1095300020FA04F001FA05F240EA020001F00042CC
:1095400021F0004110EBD37021FA04F642EB060142
:109550005EEA430E08BF20EAD37070BDC4F10C046C
:10956000C4F1200500FA04F320FA05F001FA04F230
:1095700040EA020001F0004110EBD37041F100011C
:109580005EEA430E08BF20EAD37070BDC4F1200527
:1095900000FA05F24EEA020E20FA04F301FA05F28F
:1095A00043EA020321FA04F001F0004121FA04F237
:1095B00020EA020000EBD3705EEA430E08BF20EA07
:1095C000D37070BD94F0000F0FD101F00046400041
:1095D00041EB010111F4801F08BF013CF7D041EAC3
:1095E000060195F0000F18BF704703F000465200C7
:1095F00043EB030313F4801F08BF013DF7D043EA98
:109600000603704794EA0C0F0CEA135518BF95EA4D
:109610000C0F0CD050EA410618BF52EA4306D1D1D4
:1096200081EA030101F000414FF0000070BD50EAF3
:10963000410606BF1046194652EA430619D094EA7D
:109640000C0F02D150EA013613D195EA0C0F05D167
:1096500052EA03361CBF104619460AD181EA0301BB
:1096600001F0004141F0FE4141F470014FF0000073
:1096700070BD41F0FE4141F4780170BD70B54FF00E
:10968000FF0C4CF4E06C1CEA11541DBF1CEA13558E
:1096900094EA0C0F95EA0C0F00F0A7F8A4EB050470
:1096A00081EA030E52EA03354FEA013100F0888067
:1096B0004FEA03334FF0805545EA131343EA126330
:1096C0004FEA022245EA111545EA10654FEA0026E5
:1096D0000EF000419D4208BF964244F1FD0404F59E
:1096E000407402D25B084FEA3202B61A65EB0305FA
:1096F0005B084FEA32024FF480104FF4002CB6EBB7
:10970000020E75EB030E22BFB61A754640EA0C0036
:109710005B084FEA3202B6EB020E75EB030E22BF76
:10972000B61A754640EA5C005B084FEA3202B6EBB7
:10973000020E75EB030E22BFB61A754640EA9C0076
:109740005B084FEA3202B6EB020E75EB030E22BF46
:10975000B61A754640EADC0055EA060E18D04FEA04
:10976000051545EA16754FEA06164FEAC30343EAA4
:1097700052734FEAC2025FEA1C1CC0D111F4801F71
:109780000BD141EA00014FF000004FF0004CB6E76A
:1097900011F4801F04BF01430020B4F1FD0C88BF09
:1097A000BCF5E06F3FF6AFAEB5EB030C04BFB6EB14
:1097B000020C5FEA500C50F1000041EB045170BD07
:1097C0000EF0004E4EEA113114EB5C04C2BFD4EB34
:1097D0000C0541EA045170BD41F480114FF0000EB8
:1097E000013C90E645EA060E8DE60CEA135594EA34
:1097F0000C0F08BF95EA0C0F3FF43BAF94EA0C0F37
:109800000AD150EA01347FF434AF95EA0C0F7FF4AB
:1098100025AF104619462CE795EA0C0F06D152EAFF
:1098200003353FF4FDAE1046194622E750EA4106E3
:1098300018BF52EA43067FF4C5AE50EA41047FF4F4
:109840000DAF52EA43057FF4EBAE12E74FF0FF3C59
:1098500006E000BF4FF0010C02E000BF4FF0010C2A
:109860004DF804CD4FEA410C7FEA6C5C4FEA430CA3
:1098700018BF7FEA6C5C1BD001B050EA410C0CBFF2
:1098800052EA430C91EA030F02BF90EA020F002054
:10989000704710F1000F91EA030F58BF994208BFBB
:1098A00090422CBFD8176FEAE37040F00100704778
:1098B0004FEA410C7FEA6C5C02D150EA013C07D1CF
:1098C0004FEA430C7FEA6C5CD6D152EA033CD3D01A
:1098D0005DF8040B704700BF8446104662468C4614
:1098E0001946634600E000BF01B5FFF7B7FF002847
:1098F00048BF10F1000F01BD4DF808EDFFF7F4FF70
:109900000CBF012000205DF808FB00BF4DF808EDFA
:10991000FFF7EAFF34BF012000205DF808FB00BF1D
:109920004DF808EDFFF7E0FF94BF012000205DF83F
:1099300008FB00BF4DF808EDFFF7CEFF94BF0120F4
:1099400000205DF808FB00BF4DF808EDFFF7C4FFED
:1099500034BF012000205DF808FB00BF4FEA410C36
:109960007FEA6C5C02D150EA013C0AD14FEA430C19
:109970007FEA6C5C02D152EA033C02D14FF0000056
:1099800070474FF0010070474FEA410212F5001294
:1099900015D211D56FF47873B3EB625212D94FEA36
:1099A000C12343F0004343EA505311F0004F23FA20
:1099B00002F018BF404270474FF00000704750EA75
:1099C000013005D111F0004008BF6FF00040704732
:1099D0004FF00000704700BF4A0011D212F500128C
:1099E00011D20DD56FF47873B3EB62520ED44FEAF7
:1099F000C12343F0004343EA505323FA02F0704777
:109A00004FF00000704750EA013002D14FF0FF30B4
:109A100070474FF00000704710F8012B11F8013B20
:109A2000012A28BF9A42F7D0D01A7047034613F88C
:109A3000012B002AFBD1181A0138704770B503F0CA
:109A400073FB0025054E064CA41BA408AC4200D1B4
:109A500070BD56F8043B98470135F7E7D0FF3F0249
:109A6000F8FF3F0200F0B0BB08B500F041FCBDE8D4
:109A7000084003F011BB02F0AFBE02F0ADBE02F031
:109A8000B9BE00000C2008B5024A034902F046FDA9
:109A9000FEE700BF95CA3F0298F03F020078B0FA97
:109AA00080F0400970470123037070472DE9F041B1
:109AB00004468568DFF8D480D8E88F3F13F0010FA3
:109AC0002F4E09D14046FFF7E9FF28B102F07CF99B
:109AD00030604046FFF7E7FF0C22ABB253433268D9
:109AE000E568D05CD118274A274B4978002818BF71
:109AF00013461F6DCF4007F00107D8E88F3FDB0703
:109B000009D42248FFF7CAFF28B102F05DF930609E
:109B10001E48FFF7C8FF0C22ABB253433168CA1886
:109B20005078C95C174A184B002918BF13461A6DA4
:109B3000237CC24002F0010203F003030FB143F0A3
:109B400004030AB143F008039A08013B22740D2B69
:109B50000BD8DFE803F0070C0F0C0A120707120AF4
:109B60000C0F0C07636901336361BDE8F081636921
:109B7000013BF9E763690233F6E76369023BF3E708
:109B800088AC0710004401480040014884AC07102D
:109B900070B50C1E064615460BDA0A2A09D12D218E
:109BA00003F09EF961423046EAB2BDE8704003F02E
:109BB000B0B92146F7E710B403685A6899685410A1
:109BC00001EB6200D20748BF0A591B685DF8044BDD
:109BD00048BFD3581847012A38B5044602D10B684C
:109BE000236003E0022A03D0032A0DD0002038BDF1
:109BF0000C200D68FFF73FFF03460028F0D095E8E2
:109C0000070083E80700EBE700680028EED00C218E
:109C1000FFF735FFEAE70000F0B51F4600238DB0DF
:109C200002AD85E8060005AC064695E8030084E829
:109C300005000C200A93FFF71EFF024620B194E8AE
:109C4000030082E8030097600B4B08920B930B4BC9
:109C500030460A939DF850309DF84820009308A99B
:109C60009DF94C3003F0D4FB0A9B1BB108A90322D9
:109C7000084698470DB0F0BD4FA73F026FA73F02BF
:109C80000EB403B503AB53F8042B0021019303F08A
:109C90005EF902B05DF804EB03B0704738B50B4BCA
:109CA0008469054603607CB16368013B63605BB90E
:109CB000236820469B689847A368013BA3601BB9B3
:109CC00023682046DB689847284638BD68FD3F0278
:109CD00010B50446FFF7E2FF20461C21FFF7CFFE38
:109CE000204610BD2DE9F04105468CB00F46684670
:109CF0006A4914461E46DDF8488003F013F8DFF881
:109D0000F0E16749DEF800306648AB42664ADFF8AA
:109D1000E4C119D10B68BB4216D10368A34213D129
:109D20001368B34210D1DCF8003043450CD103F086
:109D30001DFB5E49FFF7A4FF0024684602F0A7FF61
:109D400020460CB0BDE8F081CEF800500F600460F2
:109D50001660CCF80080002F00F09B8054496846C4
:109D600003F00EF8694608A802F0FFFF0A224146F8
:109D700004A803F017F804A908A803F05BF84D49FC
:109D800003F064F80146684602F0E0FF04A802F020
:109D90007EFF08A802F07BFF694608A802F0E5FFF5
:109DA0000A22314604A802F0FDFF04A908A803F026
:109DB00041F8414903F04AF80146684602F0C6FFFF
:109DC00004A802F064FF08A802F061FF694608A831
:109DD00002F0CBFF0A22214604A802F0E3FF04A907
:109DE00008A803F027F8354903F030F80146684623
:109DF00002F0ACFF04A802F04AFF08A802F047FFF7
:109E0000002350222E492F4803F0EAFC0446002884
:109E100093D003F0ABFA009A2B49FFF731FF2B499F
:109E2000284803F059F82A49264803F055F82949EB
:109E3000244803F051F80A2229462248FFF7A8FED9
:109E40002549204803F05BF824491E4803F057F8E1
:109E500023491C4803F040F819491A4803F04FF809
:109E60002049184803F038F80A220299154803F0EF
:109E700050F8144803F037F81B49124803F03FF834
:109E8000104803F030F800990E4803F038F8012428
:109E900053E76846154902F073FFB1E7AFF43F029C
:109EA000F8AC071000AD0710F0AC0710ADF03F02A2
:109EB000C9F03F02DBF03F02E3F03F02F6F03F0261
:109EC000E4F53F028CAC0710F8F03F0214F13F02BA
:109ED0009CF53F021EF13F0227F13F0250F33F0283
:109EE00037F13F023EF13F024FF13F02EBF03F02FC
:109EF000F4AC0710FCAC07101FB5044624496846B3
:109F000002F010FF03F032FA22462249FFF7B8FEB2
:109F10002149684602F07DFF204A2149002312882A
:109F200051F824101F4803F05BFC28B31E491D485C
:109F300002F0E5FF1D491B4802F0E1FF1C491948EA
:109F400002F0DDFF1B49174802F0D9FF1A491548F6
:109F500002F0C2FF0A220299124802F0DAFF114809
:109F600002F0C1FF0F4802F0BEFF00990D4802F059
:109F7000B3FF0C4802F0B7FF0A4803F0AFFC10B182
:109F8000084803F0DFFD684602F081FE04B010BD12
:109F9000AFF43F0276F13F028DF13F02F8A70710C0
:109FA000E0A70710D4AC0710B9F23F02E1F23F027C
:109FB00007F33F0244F33F023EF13F021FB5044660
:109FC0002449684602F0AEFE03F0D0F92246224949
:109FD000FFF756FE2149684602F01BFF204A21493F
:109FE0000023128851F824101F4803F0F9FB28B30E
:109FF0001E491D4802F083FF1D491B4802F07FFFE8
:10A000001C49194802F07BFF1B49174802F077FFF3
:10A010001A49154802F060FF0A220299124802F01C
:10A0200078FF114802F05FFF0F4802F05CFF0099D3
:10A030000D4802F051FF0C4802F055FF0A4803F0AA
:10A040004DFC10B1084803F07DFD684602F01FFE8C
:10A0500004B010BDAFF43F025BF33F0274F33F0264
:10A06000F8A70710E0A70710D4AC0710B9F23F0219
:10A07000E1F23F0207F33F0244F33F023EF13F02A9
:10A0800010B50446008803F02FFF227A4AB9031E58
:10A0900018BF012362686360934214BF1846002012
:10A0A00010BDB0FA80F35B09F4E700002DE9F0473A
:10A0B00088461746044688B04046022103F0EAFE6F
:10A0C0000221384603F0E6FE00234FF4FA60C4E9AB
:10A0D00001382360E760636101F010FFDFF8DCA066
:10A0E000A568DAE88F3F13F0010FDFF8D4900AD1AA
:10A0F0005046FFF7D3FC30B101F066FEC9F800000E
:10A100005046FFF7D0FC0C22ABB25343D9F80020E5
:10A11000E668D05CD118274A274B4978002818BF39
:10A1200013461D6DCD4005F00105DAE88F3FDA07D3
:10A130000AD42248FFF7B2FC30B101F045FEC9F85D
:10A1400000001E48FFF7AFFC0C22B3B25343D9F80E
:10A1500000204FF0FF36D05CD118164B164A4978D4
:10A16000002818BF1A46136DDFF85890CB40DB0764
:10A1700048BF45F002052574002523462A46494676
:10A180004046CDE900560295CDF810900595FFF7B1
:10A1900043FDCDE90695CDE90165009508AA38464D
:10A1A00012E906002346FFF737FD204608B0BDE858
:10A1B000F08700BF004401480040014884AC07100C
:10A1C00088AC071045A63F0230B595B003F0CEF835
:10A1D0004FF4165103F0BAF8002001F0B9FE04461E
:10A1E000002001F0B5FE001B61F10001B0F57A7F9F
:10A1F00071F1000307D203F0B9F803F0ABF810B91E
:10A2000002F0CEFAECE703F0B1F803F0A3F803F0A4
:10A21000CFFE4FF4165103F085F900232A4C1A465D
:10A220001946606802F014FA002360681A4619465D
:10A2300002F054FA3822002106A804F0B4F84C23A6
:10A240000193224B0A220293002360681946CDE94C
:10A25000032301AA059302F033FA002360681A462B
:10A26000194602F0BDF91A4D00226068114602F04D
:10A27000C5F928B103F07AF82946FFF701FDF3E7A5
:10A2800003F074F81349FFF7FBFC134800F06CFE71
:10A290000A21114801F01BF80F4800F0CBFE76218F
:10A2A0000E4800F012FE0E4B187028B903F05EF84D
:10A2B00076220C49FFF7E4FC3C2202210A4815B043
:10A2C000BDE8304001F0D2BAF4AE0710A0F43F026E
:10A2D000ABF43F02ADF43F02E0AD071004AD071050
:10A2E00008AE0710B0F43F0250AD071000000000A8
:10A2F0002DE9F0432DED028B83B001F01BFE954B51
:10A30000954C1860954B1860954800F055FD9548A0
:10A3100084ED000A01F0DEF90121924801F027FDE9
:10A320000121904801F028FD00220A218D4801F00A
:10A330001BFD8D498B4802F0CFFD94ED008A18EE8D
:10A34000100AFFF719F802460B4604460D468046F0
:10A350008946FFF703FB002800F0DF80834981482E
:10A3600002F0BAFD0A22B0217E48FFF711FC02215B
:10A370007C4801F0FCFC01217A4801F0FDFC1C2224
:10A380000C21784801F0F0FC7949764802F0B7FDDD
:10A39000744801F0FBF90026764C774F0725B6FB91
:10A3A000F5F3764AC3EBC303F31A52F82320B1B294
:10A3B0003846236000F048FF384600F03BFE236833
:10A3C000013601330C2E2360E8D16D48FFF758FEAB
:10A3D000D0B123686B4E93FBF5F5C5EBC5055D1B4E
:10A3E000FF233178684A81F0010131700093674B97
:10A3F00052F825201B680120FFF774FC02F0B6FF1D
:10A4000032786349FFF73CFC624E03F031F8624D4D
:10A41000776903F02FF82F6003F02AF8776903F0CB
:10A4200029F85F2F06DD5F272F6003F021F87761A1
:10A4300003F020F803F01CF8776903F01BF8002FF5
:10A4400006DA00272F6003F013F8776103F012F8A3
:10A45000524E2A6833689A4223D002F087FF2A6856
:10A460004F49FFF70DFC2B68484F5B003B6002F043
:10A470007DFF01224B49FFF703FC07232268424975
:10A4800092FBF3F3C3EBC303D21AFF23009351F8FB
:10A4900022203C493B6801200978FFF723FC2B6808
:10A4A00033603748FFF7ECFDA0B107222368364937
:10A4B000013393FBF2F2C2EBC20223609A1AFF232C
:10A4C000009351F82220314B2E4901201B68097856
:10A4D000FFF708FC2A48FFF7D3FD002800F0D580DD
:10A4E000284C237883F00103237002F03FFF227889
:10A4F0002749FFF7C5FB2378002B00F0B88002F056
:10A5000035FF02222849FFF7BBFB022003B0BDEC58
:10A51000028BBDE8F043FFF7EFBC25F000474FF09A
:10A52000FF3220463946214BFFF718FA48B94FF061
:10A53000FF32204639461D4BFFF7F2F908B91C4996
:10A540000DE7DFED1C7AB4EEE78AF1EE10FA37DDA5
:10A55000194904E74CAD07100CAE0710B0AD071059
:10A5600004AD071050AD0710D3F43F02DAF43F02F8
:10A57000E6F43F02DCA70710E0AD0710C8F53F0284
:10A58000FCAD0710DCAD0710A8AC071048AD0710F4
:10A59000F0F43F0274AD0710F8AD0710ACAD071032
:10A5A000FAF43F020FF53F0223F53F02FFFFEF7F72
:10A5B000DEF43F02FFFF7F4FE2F43F02FFFF7FCF59
:10A5C0005FED027AB4EEE78AF1EE10FAC0D4B5EE90
:10A5D000C08AF1EE10FA06D52D21314802F080FC38
:10A5E000A04605F100492CA3D3E900234046494683
:10A5F000FEF764FD0D460446FFF7EEF90646FEF74A
:10A6000099FE0B46024629462046FEF755FD0446B4
:10A610000D460A223146224802F07BFC214920489F
:10A6200002F05AFC204B002220462946FEF7FCFE91
:10A630000F460646FFF7A8F904460A2201461848C5
:10A64000FFF7A6FA2046FEF785FE02460B46304687
:10A650003946FEF731FD0022134BFEF7E5FEFFF70A
:10A6600093F90A2201460E48FFF792FA7AE602F0C1
:10A670007DFE02220D49FFF703FB022003B0BDEC73
:10A68000028BBDE8F043FFF799BC03B0BDEC028B31
:10A69000BDE8F083AFF300807B14AE47E17A743FEE
:10A6A00050AD0710ABF43F020000244038F53F02E4
:10A6B00010B53E493E4802F035FB3E4B3E4C1B6810
:10A6C0003E4823603E4B1B6863603E4B1B68A360A3
:10A6D0003D4B1B68E3603D4B1B6823613C4B1B6893
:10A6E00063613C4B1B68A36103F076FA3A4803F0C0
:10A6F00073FA0022394B0320C3E90022A2F580320D
:10A700009A6001F035FF364B1A68072392FBF3F38A
:10A71000C3EBC303D31A54F82320324B324C1A60D4
:10A72000D4E88F3FDB070AD42046FFF7B7F930B1F2
:10A7300001212E4802F004F92046FFF7B4F92B4A14
:10A7400002230C212A4800F000FC4FF0FF31294879
:10A7500000F0AAFF284800F08DF800240321274BC1
:10A76000084619601C7203F095FB0F20244B03214F
:10A7700018601C7203F08EFB052204212148FFF7AC
:10A7800095FC4FF4FA72204B9A60204ADC84D2F890
:10A790000210C3F81610D2F806105289C3F81A1026
:10A7A000DA834FF400721A8410BD00BFAFF43F0289
:10A7B0009CAD0710C4AC0710A8AC07108CAC0710F8
:10A7C000D0A70710D8A70710C8A70710C4A707105D
:10A7D000CCA70710D4A70710D4AC0710C8AC07103B
:10A7E000DCA7071098AD071078AC07107CAC0710F9
:10A7F000E0AD071050AD071004AD0710FCAD071019
:10A800008CAD071074AD0710B4AD07107CF03F029B
:10A81000704710B504461021FFF731F9204610BDEE
:10A8200073B5044622790846A36832B1A3B90B492F
:10A8300002B0BDE8704002F04FBB094A267B094DCB
:10A840000949647B012E18BF2946CDE90014074948
:10A85000FFF716FA02B070BD054AEFE701F63F02B6
:10A86000AFF43F02FDF53F02F9F53F0217F63F0254
:10A87000F0F53F024FF0FF330361704713B50A4C08
:10A88000D4E88F1F11F001010BD120460191FFF791
:10A8900005F9019928B1054802F052F82046FFF762
:10A8A00002F9024802B010BD10AE071014AE071036
:10A8B00008B5FFF7E3FFBDE8084002F08AB807B526
:10A8C0000190FFF7DBFF019903B05DF804EB02F0A4
:10A8D00099B82DE9F04190F91330054601330F4640
:10A8E00006D1FFF7CBFF3946BDE8F04102F050B981
:10A8F000002407264FF0010895F91300002180B2CB
:10A9000003F0D9FA95F9110008FA06F1394080B23E
:10A9100003F0D1FA95F91300012180B203F0CBFACC
:10A9200095F91200640080B2E4B203F0DDFA08B1D8
:10A9300044F00104013EDFD22046BDE8F081000072
:10A940007FB590F91030044601330E46154613D1F9
:10A950000179006802F070FE2068314603689B6848
:10A9600098472068294603689B689847206804B088
:10A97000BDE8704002F06BBE90F9133001330CD18A
:10A98000164B6846009300238DF80430144B029355
:10A990000123ADF80C30FFF792FF94F9100000216D
:10A9A00080B203F088FA06F07F012046FFF791FF9E
:10A9B00029462046FFF78DFF94F91000012180B24F
:10A9C00003F079FA94F91330013304D104B0BDE8EF
:10A9D0007040FFF76DBF04B070BD00BF3CF63F0292
:10A9E00020A10700F8B50446DB0002F0070203F0DF
:10A9F0003803134343EA81139DF8186080F83C3014
:10AA000090F840309DF81C509DF8207066F3471375
:10AA100080F84030ED0090F8383007F0070705F077
:10AA2000380523F03F033D431D4380F8385006F0BE
:10AA30000702F221FFF784FF94F838202046C2F382
:10AA4000C20302F007019B0043EA411343EAD2121A
:10AA5000F521FFF775FF94F83C202046C2F3C203AE
:10AA600002F007019B0043EA411343EA9212F421EA
:10AA7000BDE8F840FFF764BF30B590F910300446E8
:10AA800001330D4685B018D10179006802F0D4FD7C
:10AA90002068294603689B689847206802F0D7FD24
:10AAA00001222179206802F0C4FD206803685B69F7
:10AAB0009847C5B2284605B030BD90F91330013330
:10AAC0000CD1154B6846009300238DF80430134BCE
:10AAD00002930123ADF80C30FFF7F1FE94F910005A
:10AAE000002180B203F0E7F945F080012046FFF72E
:10AAF000F0FE00212046FFF7ECFE054694F9100019
:10AB0000012180B203F0D7F994F913300133D1D188
:10AB1000FFF7CEFECEE700BF3CF63F0220A10700C4
:10AB2000F32108B5FFF7A8FF00F0010008BD000001
:10AB300030B590F91030044601330D4685B01FD171
:10AB40000179006802F078FD2068294603689B6857
:10AB50009847206802F07BFD02222179206802F0EC
:10AB600068FD206803685B699847054620680368AC
:10AB70005B69984740EA052085B2284605B030BD9C
:10AB800090F9133001330CD1184B68460093002321
:10AB90008DF80430164B02930123ADF80C30FFF70B
:10ABA0008EFE94F91000002180B203F084F945F084
:10ABB00080012046FFF78DFE00212046FFF789FE29
:10ABC000002105462046FFF784FE40EA052085B2B5
:10ABD00094F91000012180B203F06DF994F913305B
:10ABE0000133CAD1FFF764FEC7E700BF3CF63F025E
:10ABF00020A1070008B5FFF79BFF40BA80B208BD4F
:10AC000038B588210446FFF7F5FF8A21A082204647
:10AC1000FFF7F0FF8C21E0822046FFF7EBFF8E214B
:10AC200020832046FFF7E6FF902160832046FFF750
:10AC3000E1FF9221A0832046FFF7DCFF9421E0830F
:10AC40002046FFF7D7FF962120842046FFF7D2FF4A
:10AC5000982160842046FFF7CDFF9A21A0842046EA
:10AC6000FFF7C8FF9C21E0842046FFF7C3FF9E2129
:10AC700020852046FFF7BEFFA12160852046FFF713
:10AC8000FBFEE12184F82C002046FFF7B3FFE3210F
:10AC9000E0852046FFF7F0FEE42184F830002046EE
:10ACA000FFF7EAFEE52105462046FFF7E5FE00F046
:10ACB0000F0343EA0510E62160862046FFF7DCFE1D
:10ACC000E52105462046FFF7D7FEC0F3071343EA08
:10ACD0000510A086E7212046FFF7CEFE84F8360057
:10ACE00038BD000030B590F91030044601330D46F0
:10ACF00085B023D10179006802F09EFC20682946C6
:10AD000003689B689847206802F0A1FC0322217920
:10AD1000206802F08EFC206803685B699847050292
:10AD2000206803685B699847284305022068036828
:10AD30005B6998470543284605B030BD90F913304C
:10AD400001330CD11A4B6846009300238DF8043070
:10AD5000184B02930123ADF80C30FFF7B0FD94F9C6
:10AD60001000002180B203F0A6F845F080012046D3
:10AD7000FFF7AFFD00212046FFF7ABFD00210502E4
:10AD80002046FFF7A6FD2843002105022046FFF7D5
:10AD9000A0FD054394F91000012180B203F08BF867
:10ADA00094F913300133C6D1FFF782FDC3E700BF2A
:10ADB0003CF63F0220A1070010B5FA210446FFF738
:10ADC00091FFB0F5000F1FD0A18A9FED117A4B00C3
:10ADD000C1EB2022C3EBE011B4F91630594302FB5A
:10ADE00002F3B4F918201B1353439B1303EBE12325
:10ADF000E36003EB830380331B1207EE903AF8EE17
:10AE0000E77A87EE870A10BD9FED020AFBE700BFD5
:10AE10000000C8420000C07F30B5044690F9100021
:10AE200085B0421C19D1206802F0DCFBD0212046FD
:10AE3000FFF722FE6028A06045D12046B622E0211F
:10AE4000FFF77EFD4FF4967002F0EEF82046FFF714
:10AE500067FE054628B36420F6E7012180B203F0BF
:10AE60002AF894F91000012180B203F013F894F944
:10AE70001300431C04D1FFF701FD01F06BFDD5E782
:10AE8000012180B203F006F894F91100012180B28B
:10AE900003F000F894F91200002180B202F0FAFFEA
:10AEA000C4E72046FFF7ACFE052303211A462046DF
:10AEB0000093CDE90155FFF795FD642002F0B4F849
:10AEC000012005B030BD0020FBE710B5017104463C
:10AED00003F01AF920602046BDE81040FFF79CBF40
:10AEE0000EB44FF0200C002300B58CB00DAA52F820
:10AEF000041BCDE904C3CDE900120392016804AA42
:10AF0000322001F027FB0CB05DF804EB03B0704772
:10AF100038B50446C0680D4608B101F06BFCA37952
:10AF2000062B0CBF0420032010FB05F080B2A0808C
:10AF300001F052FCE06028B10021A28803F033FA4E
:10AF4000658038BDA0806080FBE770B500250446B1
:10AF50001646C0E90355057083710572FFF7D8FFE7
:10AF60002046666170BD00002DE9F74F83790446E5
:10AF7000022B4ED143691B78012B06D929492A4857
:10AF8000FFF7AEFF03B0BDE8F08F002B0CBF4FF012
:10AF900011094FF0040948460CBF1027032702F09F
:10AFA00039FF0646384602F035FF012E054633D1FB
:10AFB000484602F099FF8246012D30D1384602F012
:10AFC00093FF80464FF0010B184B6069CDE9003BC1
:10AFD000FF226B460021007801F0EAF95A46144935
:10AFE000606901F07DFD3146484602F053FF294675
:10AFF000384602F04FFF5E4504D148465FFA8AF1B9
:10B0000002F059FF012D04D138465FFA88F102F0B1
:10B0100052FF01232370B5E74FF0000ACCE74FF051
:10B020000008CFE748F63F0238AE071008000A00D4
:10B0300008AF2F00C368002B00F0FC8070B5837947
:10B040000446022B82B040F0EF80868806EB46066D
:10B05000F036304601F0C0FB0546002800F0EB80DA
:10B060003246002103F09FF96288002A00F0C78071
:10B07000AC4602EBC202E1682A4491F9003008783C
:10B08000002BB5BF4FF0D00E4FF0900ED823982371
:10B0900010F0400F08BF734610F0200F14BF0320BC
:10B0A000022003448CF8783008780CF1090C00F089
:10B0B0001003002B15BF4FF0690E4FF0490E6D23A2
:10B0C0004D2310F0080F08BF73468CF870300B78D2
:10B0D000033113F0020F14BF3020202013F0010FB2
:10B0E0000CBF4FF0040E4FF0060E5B0103F080031F
:10B0F000034473448CF8713011F9020C11F8023CCE
:10B100000028B5BF4FF0D00E4FF0900ED8209820F9
:10B1100013F0400F08BF704613F0200F14BF032335
:10B12000022303448CF8723011F8020C00F0100373
:10B13000002B15BF4FF0690E4FF0490E6D234D23C4
:10B1400010F0080F08BF73468CF8733011F802EC4A
:10B150001EF0020F14BF302020201EF0010F14BF7C
:10B16000062304234FEA4E1E0EF0800E86449E44B2
:10B170008CF874E011F9013C11F8010C002BB5BFFB
:10B180004FF0D00E4FF0900ED823982310F0400FC0
:10B1900008BF734610F0200F14BF032002200344A1
:10B1A0008CF8753011F8010C00F01003002B15BF5E
:10B1B0004FF0690E4FF0490E6D234D2310F0080F2C
:10B1C00008BF73468CF8763011F8010C10F0020FAE
:10B1D00014BF4FF0300E4FF0200E430103F08003F8
:10B1E0007344DBB2C00703F1060E03F104034CBF46
:10B1F0008CF877E08CF8773094457FF43EAF606947
:10B2000001F0E4FB0022334629466069009201F018
:10B21000C5FC606901F0DDFB284601F0EBFA00F0A7
:10B220007BFE206102B070BD04490548FFF758FE5F
:10B2300002B070BD70470349F7E700BF68F63F02F0
:10B2400038AE071084F63F024388F0B58B422DD903
:10B25000067AC2F30743C2F30724D5B23EB1734363
:10B2600074437543C3F30723C4F307242D0A90F8EE
:10B2700006C0C768BCF1060F0CBF042603264E4368
:10B28000ACF1020CB919BCF1060F1DD8DFE80CF0C7
:10B29000041C08040F040400BC554B708D7005E0BD
:10B2A000FE2B28BFFE23BB554D708C70F0BDBB55E7
:10B2B0004C708D70037A120E13B9D2B2CA70F5E7D2
:10B2C0005A43C2F30722F9E7BB554C70E6E7037A0D
:10B2D0004A1CD2B2934270B51FD0013B13F0FF035A
:10B2E000C4680CD0FF290FBF4FF6FF71110201F1A6
:10B2F000FF31B1FBF3F30CBFB1FBF3F39BB2254677
:10B300008688291B89B28E4206D929785943C1F310
:10B31000072105F8011BF3E7027270BDF0B5457E09
:10B32000BDF81440022D69D0032D00F09B80012D43
:10B330006CD1D24305892A4412B2002A5DDBB0F9F0
:10B340000850954259DD0029BEBF5B1800211BB291
:10B35000B0F90A00CD188542C4BF431A1BB2002BB6
:10B360004BDDC1F3C400DFF824C102EBC01211F0C1
:10B370000701DBB20CEB02001AD0C1F10805414E07
:10B38000EDB2AB42775D3FBFFF26A5EB030E46FA59
:10B390000EF637401CF80260012C0CBF3E43BE4342
:10B3A000AB420CF8026028D308390B44DBB2803082
:10B3B000072B19D9012C4FF0FF3518BF00251A466D
:10B3C000EDB200F18001083AD2B2072A01F8805CA0
:10B3D00001F18001F7D8A3F10802C2F3C4020132DF
:10B3E00000EBC21003F007033BB1274A012CD25CEB
:10B3F00003780CBF134393430370F0BDD2434589D8
:10B400002A44CD18018912B2491B09B2002AF4DB83
:10B41000B0F90A509542F0DD0029BEBF5B1800214B
:10B420001BB2B0F90870CE18BE42C4BF6B1A1BB273
:10B43000002BE2DD8025D01010FB05111348012CF4
:10B44000014402F007004FF0010202FA00F2D2B20A
:10B450000B440CD18B42D0D011F8010B104301F8F2
:10B46000010CF7E7CD184189491B09B265E7D243C2
:10B47000D2B28B42C1D011F8010B104001F8010C7F
:10B48000F7E700BF04A80710FCA707100CA80710D7
:10B49000F0B5457EBDF81440022D36D0032D00F0E6
:10B4A0009D80012D39D1D5180289521B12B2002975
:10B4B000C0F29380B0F90A508D4240F38E80002A8A
:10B4C000BEBF9B1800221BB2B0F90870D618BE424E
:10B4D000C4BFAB1A1BB2002B7FDD8025C81010FB48
:10B4E00005224648012C024401F007004FF00101FB
:10B4F00001FA00F1C9B2134475D19A426DD012F825
:10B50000010B084302F8010CF7E7C94305892944F8
:10B51000D518428909B2521B12B200295DDBB0F97D
:10B5200008508D4259DD002ABEBF9B1800221BB275
:10B53000B0F90A00D5188542C4BF831A1BB2002B8C
:10B540004BDDC2F3C400DFF8B4C001EBC01112F050
:10B550000702DBB20CEB01001AD0C2F10805284E3D
:10B56000EDB2AB42775D3FBFFF26A5EB030E46FA77
:10B570000EF637401CF80160012C0CBF3E43BE4361
:10B58000AB420CF8016028D3083A1344DBB2803098
:10B59000072B19D9012C4FF0FF3518BF00251A468B
:10B5A000EDB200F18001083AD2B2072A01F8805CBE
:10B5B00001F18001F7D8A3F10802C2F3C4020132FD
:10B5C00000EBC21003F007033BB10E4A012CD25C22
:10B5D00003780CBF134393430370F0BDC9434589FF
:10B5E000294409B263E7C943C9B29A42F5D012F8B7
:10B5F000010B084002F8010CF7E700BF0CA8071088
:10B6000004A80710FCA7071070470000F8B50D1E2E
:10B61000064614461F462DDB00F0B3FBA84229DD89
:10B62000002C27DB304600F0AFFBA04222DD304685
:10B6300000F0A5FB02281ED0032825D0012804D144
:10B64000E24333892C461A4415B222468021002C4D
:10B65000B8BFE21DD21012FB015501220D4904F0C2
:10B6600007044B5702FA04F464B297420CBF234319
:10B67000A3434B55F8BDE4433189728901394D1B11
:10B6800014442DB224B2E0E77389013B5B1B2546CD
:10B690001CB2DAE70CA8071010B504462421FEF707
:10B6A000EEF9204610BD000038B504460D46402294
:10B6B000802100F08BFA064B20462360FF2384F89C
:10B6C000213063774FF6FF7384F82050E38338BD51
:10B6D000ACF63F024FF480620021014802F063BEE5
:10B6E0000CA8071007B590F8223043B10191FFF77D
:10B6F000C5F8019903B05DF804EB01F049BA0B46B7
:10B700000122817F407F03B05DF804EB02F0FFBBB4
:10B7100038B590F91D30044601330D461DD090F91F
:10B720002100012180B202F0C6FB94F91F00002124
:10B7300080B202F0C0FB94F92100002180B202F037
:10B74000BAFB29462046FFF7CDFF94F921000121DD
:10B75000BDE8384080B202F0AEBB02F0D5FC94F9EF
:10B760001B1001F06DFF02F0CFFC036800219B6805
:10B77000984702F0C9FC036829469B68984702F085
:10B78000C3FCBDE8384001F062BF0000F8B50446D4
:10B790002121FFF7BDFF00212046FFF7B9FF7F21E0
:10B7A0002046FFF7B5FF22212046FFF7B1FF002119
:10B7B0002046FFF7ADFF07212046FFF7A9FF94F9C8
:10B7C0001D30294F01332AD094F92100012180B284
:10B7D00002F071FB94F91F00012180B202F06BFBB3
:10B7E00094F92100002180B202F065FB012000F0F5
:10B7F00085FB4FF48065013D204617F8011BADB273
:10B80000FFF770FF002DF6D1012000F077FB94F9CF
:10B8100021000121BDE8F84080B202F04CBB0025B8
:10B8200002F072FC94F91B1001F00AFF02F06CFCAC
:10B83000036840219B68984705F11006B6B202F0F4
:10B8400063FC0368795D9B6898476B1C9DB2AE42B0
:10B85000F5D102F059FC01F0FAFEB6F5806F00D187
:10B86000F8BD3546DCE700BF0CA8071038B590F9E5
:10B870001D30044601330D460177C27600F0C980C1
:10B8800090F91F00012180B202F004FB94F921001D
:10B89000012180B202F0FEFA94F82230002B00F071
:10B8A000A68094F92100012180B202F004FBFEF78A
:10B8B000E5FF012101F062F8FEF7E0FF102101F041
:10B8C00041F9FEF7DBFF002101F06CF8FEF7D6FF2F
:10B8D00001F040F894F92000012180B202F0DAFA78
:10B8E00094F92000012180B202F0E5FA012001F074
:10B8F0009BFB94F92000002180B202F0DCFA0A20C0
:10B9000001F092FB94F92000012180B202F0D3FAF9
:10B910002046AE21FFF7FCFE2046D521FFF7F8FEBA
:10B9200020468021FFF7F4FE2046A821FFF7F0FE15
:10B9300020463F21FFF7ECFE2046D321FFF7E8FE2B
:10B9400020460021FFF7E4FE20464021FFF7E0FEFD
:10B950008D212046FFF7DCFE012D0CBF10211421A4
:10B960002046FFF7D5FE20462021FFF7D1FE2046D6
:10B970000021FFF7CDFE2046A121FFF7C9FE20469A
:10B98000C821FFF7C5FE2046DA21FFF7C1FE204699
:10B990001221FFF7BDFE81212046FFF7B9FE012DE0
:10B9A0000CBF9F21CF212046FFF7B2FED9212046B0
:10B9B000FFF7AEFE012D0CBF2221F1212046FFF73B
:10B9C000A7FE2046DB21FFF7A3FE20464021FFF71C
:10B9D0009FFE2046A421FFF79BFE2046A621FFF7ED
:10B9E00097FE2046BDE83840AF21FFF791BE94F99D
:10B9F0001D00012180B202F04DFA94F91E000121D0
:10BA000080B202F047FA94F82230002B3FF462AF84
:10BA100047E702F079FB01F0E5FD5BE72DE9F04F28
:10BA20001F4685B0BDF93880A7EB010AA8EB0209D3
:10BA3000B9F1000FB8BFC9F10009BAF1000FB8BFE2
:10BA4000CAF1000AD14583460C461546BDF83C3084
:10BA500004DD3A462C4647460D469046BC4205DD7D
:10BA60002A464546904622463C4617463E1BB2B201
:10BA70000092A8EB050282EAE271A1EBE271C6F343
:10BA8000C03202FA86F64545B4BF01224FF0FF32BC
:10BA9000019176100292BC421CDCDBF80020D145FB
:10BAA000D2F81080C7BF294622462A462146039372
:10BAB0005846C047019A039BB61AB1B236B2002E5F
:10BAC00005DA029A1544009A2DB2561836B201349E
:10BAD00024B2E0E705B0BDE8F08F2DE9F347044656
:10BAE00016468A461D46BDF82C800768BDF9289089
:10BAF000CDF80080FF69B847236809F1FF32CDF81F
:10BB00000080324451462046DF6912B22B46B847C6
:10BB10002368CDF800803246514620469F694B4647
:10BB2000B8476B1E03EB0A012368CDF828809D6996
:10BB300032464B462046AC4609B202B0BDE8F0475B
:10BB4000604737B5013BBDF81850134404681BB279
:10BB5000009301950B466469A04703B030BD37B52B
:10BB6000BDF818500468CDE90025013B0B44646919
:10BB70001BB2A04703B030BD2DE9F34705469246FE
:10BB80000C46BDF92890BDF82C80CE18B4420BDAD3
:10BB90002B68CDF8008021469F6952464B462846C7
:10BBA0000134B84724B2F1E702B0BDE8F08713B51D
:10BBB0000191B0F90E1002680091546A0022B0F9A8
:10BBC0000C301146A04702B010BD70474281C281BF
:10BBD0004FF0FF3230B5426100240122044D446031
:10BBE00005600181818104610283827630BD00BFDE
:10BBF000E0FB3F022DE9F04F2DED028B8DB004915B
:10BC0000BDF8601007460591BDF864109DF86850B6
:10BC10000691B0F90C100498814252DDB7F90E106C
:10BC200091424EDD062111FB0504002C49DD02EB9B
:10BC3000C504002C45DD002403EB83030B9393B272
:10BC4000079308339BB208910993052C0FBF00237B
:10BC50002B4B0B9A1B1918BF9B5C049A0393ABB236
:10BC60000A9304FB05F3079E13FA82F31BB208EE56
:10BC7000103AB04604EB020A0FFA85F90FFA8AFA75
:10BC8000039BDB072FD5012D3B681FD1D3F810B0E4
:10BC9000059B5146384632B2D847039B01365B08B4
:10BCA00003930A9BB6B29844099B1FFA88F8B342E3
:10BCB000E6D1089B0134013B13F0FF0364B2089303
:10BCC000C3D10DB0BDEC028BBDE8F08F059ACDE974
:10BCD000009218EE101AD3F824B038464B460FFAEB
:10BCE00088F2D847D9E7DDE905239342D5D0012D65
:10BCF0003B6803D1D3F810B0069BCAE7069AE6E783
:10BD0000DCF63F0230B50A29044685B007D1027E31
:10BD1000638A03EBC20363820023238221E00D299F
:10BD20001FD0037E0293C38A0193838A0093B0F9E4
:10BD300012200B46B0F91010FFF75CFF207E238A1B
:10BD400000EB400103EB4103A17E1BB202462382BC
:10BD500039B16FF00505B4F90C1005FB00118B42E9
:10BD6000D6DC012005B030BD018242827047012936
:10BD700038BF012101767047C18281827047407EC1
:10BD80007047B0F90C007047B0F90E007047000022
:10BD900009B504480068044B03441B689B68029380
:10BDA00009BD0000C0A707105000000009B50448F5
:10BDB0000068044B03441B68DB68029309BD000064
:10BDC000C0A707105000000009B504480068044BE4
:10BDD00003441B681B68029309BD0000C0A707103D
:10BDE0001400000009B504480068044B03441B68B4
:10BDF0009B68029309BD0000C0A707101400000053
:10BE000009B504480068044B03441B68DB680293CF
:10BE100009BD0000C0A707101400000009B50448C0
:10BE20000068044B03441B681B69029309BD0000B2
:10BE3000C0A707101400000009B504480068044BAF
:10BE400003441B685B69029309BD0000C0A707108B
:10BE50001400000009B504480068044B03441B6843
:10BE60009B69029309BD0000C0A7071014000000E1
:10BE700009B504480068044B03441B68DB6902935E
:10BE800009BD0000C0A707101400000009B5044850
:10BE90000068044B03441B681B6A029309BD000041
:10BEA000C0A707101400000009B504480068044B3F
:10BEB00003441B685B6A029309BD0000C0A707101A
:10BEC0001400000009B504480068044B03441B68D3
:10BED0005B69029309BD0000C0A707105400000071
:10BEE00009B504480068044B03441B685B6802936F
:10BEF00009BD0000C0A707100000000009B50448F4
:10BF00000068044B03441B68DB68029309BD000012
:10BF1000C0A707100000000009B504480068044BE2
:10BF200003441B681B69029309BD0000C0A70710EA
:10BF30000000000009B504480068044B03441B6876
:10BF40005B69029309BD0000C0A707100000000054
:10BF500009B504480068044B03441B68DB6D029379
:10BF600009BD0000C0A707100000000009B5044883
:10BF70000068044B03441B685B6C029309BD00001E
:10BF8000C0A707103000000009B504480068044B42
:10BF900003441B685B69029309BD0000C0A707103A
:10BFA0004C00000009B504480068044B03441B68BA
:10BFB0001B6A029309BD0000C0A707104C000000D7
:10BFC00009B504480068044B03441B689B6A02934C
:10BFD00009BD0000C0A707104C00000009B50448C7
:10BFE0000068044B03441B68DB68029309BD000032
:10BFF000C0A707102400000009B504480068044BDE
:10C0000003441B681B69029309BD0000C0A7071009
:10C010002400000009B504480068044B03441B6871
:10C020005B69029309BD0000C0A70710240000004F
:10C0300009B504480068044B03441B689B690293DC
:10C0400009BD0000C0A707102400000009B504487E
:10C050000068044B03441B68DB69029309BD0000C0
:10C06000C0A707102400000009B504480068044B6D
:10C0700003441B681B6A029309BD0000C0A7071098
:10C080002400000009B504480068044B03441B6801
:10C090009B6A029309BD0000C0A70710240000009E
:10C0A00009B504480068044B03441B68DB6A02932B
:10C0B00009BD0000C0A707102400000009B504480E
:10C0C0000068044B03441B681B6C029309BD00000D
:10C0D000C0A707102400000009B504480068044BFD
:10C0E00003441B68DB68029309BD0000C0A707106A
:10C0F0001000000009B504480068044B03441B68A5
:10C100009B69029309BD0000C0A707101000000042
:10C1100009B504480068044B03441B68DB690293BB
:10C1200009BD0000C0A707101000000009B50448B1
:10C130000068044B03441B681B6A029309BD00009E
:10C14000C0A707101000000009B504480068044BA0
:10C1500003441B685B6A029309BD0000C0A7071077
:10C160001000000009B504480068044B03441B6834
:10C170009B6A029309BD0000C0A7071010000000D1
:10C1800009B504480068044B03441B68DB6A02934A
:10C1900009BD0000C0A707101000000009B5044841
:10C1A0000068044B03441B681B6B029309BD00002D
:10C1B000C0A707101000000009B504480068044B30
:10C1C00003441B685B6B029309BD0000C0A7071006
:10C1D0001000000009B504480068044B03441B68C4
:10C1E0001B6C029309BD0000C0A7071010000000DF
:10C1F00009B504480068044B03441B681B6D029397
:10C2000009BD0000C0A707101000000009B50448D0
:10C210000068044B03441B689B69029309BD00003E
:10C22000C0A707102000000009B504480068044BAF
:10C2300003441B68DB69029309BD0000C0A7071017
:10C240002000000009B504480068044B03441B6843
:10C250001B6A029309BD0000C0A707102000000060
:10C2600009B504480068044B03441B689B6A0293A9
:10C2700009BD0000C0A707102000000009B5044850
:10C280000068044B03441B681B6B029309BD00004C
:10C29000C0A707102000000009B504480068044B3F
:10C2A00003441B689B6B029309BD0000C0A70710E5
:10C2B0002000000009B504480068044B03441B68D3
:10C2C0001B68029309BD0000C0A7071018000000FA
:10C2D00009B504480068044B03441B689B6802933B
:10C2E00009BD0000C0A707101800000009B50448E8
:10C2F0000068044B03441B68DB68029309BD00001F
:10C30000C0A707101800000009B504480068044BD6
:10C3100003441B681B69029309BD0000C0A70710F6
:10C320001800000009B504480068044B03441B686A
:10C330005B69029309BD0000C0A707101800000048
:10C3400009B504480068044B03441B68DB69029389
:10C3500009BD0000C0A707101800000009B5044877
:10C360000068044B03441B681B6A029309BD00006C
:10C37000C0A707101800000009B504480068044B66
:10C3800003441B685B6A029309BD0000C0A7071045
:10C390001800000009B504480068044B03441B68FA
:10C3A0009B6A029309BD0000C0A707101800000097
:10C3B00009B504480068044B03441B68DB6A029318
:10C3C00009BD0000C0A707101800000009B5044807
:10C3D0000068044B03441B689B6B029309BD00007B
:10C3E000C0A707101800000009B504480068044BF6
:10C3F00003441B68DB6B029309BD0000C0A7071054
:10C400001800000009B504480068044B03441B6889
:10C410001B6C029309BD0000C0A7071018000000A4
:10C4200009B504480068044B03441B685B6C029325
:10C4300009BD0000C0A707101800000009B5044896
:10C440000068044B03441B681B68029309BD00008D
:10C45000C0A707103400000009B504480068044B69
:10C4600003441B685B68029309BD0000C0A7071066
:10C470003400000009B504480068044B03441B68FD
:10C480001B69029309BD0000C0A70710340000001B
:10C4900009B504480068044B03441B685B690293B8
:10C4A00009BD0000C0A707103400000009B504480A
:10C4B0000068044B03441B689B69029309BD00009C
:10C4C000C0A707103400000009B504480068044BF9
:10C4D00003441B68DB69029309BD0000C0A7071075
:10C4E0003400000009B504480068044B03441B688D
:10C4F0001B6A029309BD0000C0A7071034000000AA
:10C5000009B504480068044B03441B689B6A029306
:10C5100009BD0000C0A707103400000009B5044899
:10C520000068044B03441B685B6B029309BD000069
:10C53000C0A707104800000009B504480068044B74
:10C5400003441B681B6D029309BD0000C0A70710C0
:10C550004800000009B504480068044B03441B6808
:10C560005B6D029309BD0000C0A7071048000000E2
:10C5700009B504480068044B03441B685B680293D8
:10C5800009BD0000C0A707100800000009B5044855
:10C590000068044B03441B685B69029309BD0000FB
:10C5A000C0A707100800000009B504480068044B44
:10C5B00003441B68D3F88830029309BDC0A7071055
:10C5C0000800000009B504480068044B03441B68D8
:10C5D000D3F89430029309BDC0A7071008000000EB
:10C5E00009B504480068044B03441B685B68029368
:10C5F00009BD0000C0A707102800000009B50448C5
:10C600000068044B03441B689B68029309BD00004B
:10C61000C0A707102800000009B504480068044BB3
:10C6200003441B68DB68029309BD0000C0A7071024
:10C630002800000009B504480068044B03441B6847
:10C640001B69029309BD0000C0A707102800000065
:10C6500009B504480068044B03441B685B690293F6
:10C6600009BD0000C0A707102800000009B5044854
:10C670000068044B03441B689B69029309BD0000DA
:10C68000C0A707102800000009B504480068044B43
:10C6900003441B68DB69029309BD0000C0A70710B3
:10C6A0002800000009B504480068044B03441B68D7
:10C6B0001B6A029309BD0000C0A7071028000000F4
:10C6C00009B504480068044B03441B689B6A029345
:10C6D00009BD0000C0A707102800000009B50448E4
:10C6E0000068044B03441B68DB6A029309BD000029
:10C6F000C0A707102800000009B504480068044BD3
:10C7000003441B681B6B029309BD0000C0A7071000
:10C710002800000009B504480068044B03441B6866
:10C720005B6B029309BD0000C0A707102800000042
:10C7300009B504480068044B03441B681B6C029352
:10C7400009BD0000C0A707102800000009B5044873
:10C750000068044B03441B685B6C029309BD000036
:10C76000C0A707102800000009B504480068044B62
:10C7700003441B685B6D029309BD0000C0A707104E
:10C780002800000009B504480068044B03441B68F6
:10C790009B6D029309BD0000C0A707102800000090
:10C7A00009B504480068044B03441B689B68029366
:10C7B00009BD0000C0A707102C00000009B50448FF
:10C7C0000068044B03441B68DB6B029309BD000047
:10C7D000C0A707102C00000009B504480068044BEE
:10C7E00003441B681B68029309BD0000C0A7071023
:10C7F0000400000009B504480068044B03441B68AA
:10C800005B68029309BD0000C0A707100400000088
:10C8100009B504480068044B03441B689B680293F5
:10C8200009BD0000C0A707100400000009B50448B6
:10C830000068044B03441B685B6A029309BD000057
:10C84000C0A707100400000009B504480068044BA5
:10C8500003441B68DB6A029309BD0000C0A70710F0
:10C860000400000009B504480068044B03441B6839
:10C87000DB6B029309BD0000C0A707100400000095
:10C8800009B504480068044B03441B681B6C029301
:10C8900009BD0000C0A707100400000009B5044846
:10C8A0000068044B03441B685B6C029309BD0000E5
:10C8B000C0A7071004000000002240681146FFF7DF
:10C8C000F1BE002240681146FFF724BF00224068F5
:10C8D000FFF712BF0022406881F00101FFF7D4BECC
:10C8E000002340681A461946FFF7C0BE002340687F
:10C8F0001A461946FFF7ACBE002240681146FFF702
:10C9000099BE002240681146FFF778BE002202213E
:10C910004068FFF781BE002340681A46FFF760BEFB
:10C920000322024B5A60024A1A6070471CAE07107D
:10C9300018FC3F020021FFF773BD0021FFF762BD25
:10C9400010B5044608462170FFF7FAFC0023204684
:10C95000636010BD13B504460078FFF7EEFF58B9C9
:10C9600020784FF6FF710190FFF7A4FC019802B008
:10C97000BDE81040FFF7DEBF02B010BD13B504469E
:10C9800000780191FFF7D9FF019948B9207801900B
:10C99000FFF79EFC019802B0BDE81040FFF7CABF48
:10C9A00002B010BD13B5044600780191FFF7C5FF32
:10C9B000019948B920780190FFF798FC019802B0DE
:10C9C000BDE81040FFF7B6BF02B010BD0078FFF71A
:10C9D000B4BF0078FFF7AEBF30B500244008186040
:10C9E0001868E5B2884206D90134082C02D0400804
:10C9F0001860F5E70725024B5B5D137030BD00BF83
:10CA000054FC3F022DE9F04306468FB000780C46F7
:10CA1000FFF793FF00281BDB1422002109A83578BB
:10CA200001F0C1FC0B230022284609A9ADF82430EF
:10CA3000FFF7A2FC9DF82D3013B19DF82C5055B195
:10CA400000270125B946B84623795DB1C3B100205E
:10CA50000FB0BDE8F083DDF830809DF834909DF88C
:10CA60003570F1E7002B35D1A368434508D18DF827
:10CA700020908DF82170BDF82020A3899A42E6D03D
:10CA80000023A1688DF80F300A9804AB0DF10F0256
:10CA9000FFF7A2FF217985B989B9A36843450ED371
:10CAA0008DF820908DF82170BDF82020A3899A423E
:10CAB00005D1049B434502D1C9E70029F9D10023E0
:10CAC0000193637B9DF80F200093237B3078FFF761
:10CAD0008BFCBCE72B462A460121CDE90055F5E742
:10CAE00000232DE9F041044688B000780E46174631
:10CAF0000293FFF722FF054600BB0146142203A85C
:10CB000094F8008001F04FFC0B232A46404603A90D
:10CB1000ADF80C30FFF730FC07FB06F1049802ABD0
:10CB20000DF107028DF80750FFF756FF20789DF8AA
:10CB30000710FFF7E9FB2078FFF7FCFE029808B02A
:10CB4000BDE8F08138B5044600780D46FFF7F5FEE4
:10CB50000346D0B9616899B10C4A12F8010B8542BD
:10CB600002D00133082BF8D10133DBB20122204679
:10CB7000D940FFF7B5FF2078BDE83840FFF7DABEAF
:10CB800029462078FFF7C0FBF5E738BD54FC3F028B
:10CB900008B50078FFF7C6FBC0B208BD30B587B056
:10CBA0000A9D044600950078FFF7F4FB3DB9207814
:10CBB00002A9FFF70BFC9DF81430DB07F7D407B090
:10CBC00030BD10B58368044613B10322014698476F
:10CBD000204610BD02220020044B1A60044B054A77
:10CBE000C3E900009A60FFF7C3BC00BF30AE071076
:10CBF00024AE07100000FFFF10B50446FCF716FF37
:10CC0000013823182046834206D90278197800F8A3
:10CC1000011B03F80129F6E710BD70B50C46911E03
:10CC200022291DD8254630B9302223449D4210D2F6
:10CC300005F8012BFAE7B0FBF2F602FB1600C1B2D1
:10CC4000092894BF30315731C9B2304605F8011B6D
:10CC5000E9E7002320462B70FFF7CEFF204670BD8A
:10CC60000020FCE738B5031E0C4615460DDA2D22D0
:10CC7000B3F1004F0CBF1846584201230A702A46F0
:10CC80001944FFF7CAFF204638BD0123F9E710B564
:10CC900004460068FFF7AEFD204610BD10B50446FF
:10CCA000006808B1FFF7A6FD0023C4E90133236043
:10CCB00010BD38B504460D4600680131FFF7A8FDE8
:10CCC00010B1C4E90005012038BD10B50368044661
:10CCD00023B143688B4201D3012010BD2046FFF7EA
:10CCE000E8FF0028F9D0A368002BF5D12268137063
:10CCF000F2E737B50D46114601920446FFF7E5FF0E
:10CD0000019A28B92046FFF7C9FF204603B030BD7D
:10CD10002946A260206801F039FB00212268A3683F
:10CD2000D154F2E7002313B50446C0E90033836011
:10CD3000037341B108460191FCF778FE0199024660
:10CD40002046FFF7D6FF204602B010BD884210B53E
:10CD5000044605D00B682BB18A681946FFF7C9FF56
:10CD6000204610BDFFF79AFFFAE7002310B50446EE
:10CD7000C0E9003383600373FFF7E8FF204610BD6E
:10CD800013B5044659B108460191FCF74FFE0199CD
:10CD900002462046FFF7ADFF204602B010BDFFF768
:10CDA0007DFFF9E770B50D460021164604468AB0AE
:10CDB000C0E90011816001731E2202A8019101F0F7
:10CDC000F2FA324601A92846FFF74CFF204601A996
:10CDD000FFF7D6FF20460AB070BDF8B504461646E8
:10CDE0000F4609B90020F8BD8AB185681544294667
:10CDF000FFF76BFF0028F5D0A3682068324618447F
:10CE0000394601F0C3FA002223685A55A560012073
:10CE1000E9E713B50446084651B10191FCF706FE57
:10CE200002462046019902B0BDE81040FFF7D5BF89
:10CE300002B010BD10B58A6809680446FFF7CDFF3F
:10CE400010B92046FFF72AFF204610BD13B504464F
:10CE500029B92046FFF722FF204602B010BD084640
:10CE60000191FCF7E3FD019902462046FFF7B5FF6B
:10CE70000028EED0F0E70000002302480360FFF72F
:10CE800075B800BF34AE0710F8B506460D4600244D
:10CE90008F18BD420CD0336830469B6815F8011BD3
:10CEA0009847031E01DB1C44F3E7002C08BF1C4617
:10CEB0002046F8BD13B50446084659B10191FCF768
:10CEC000B5FD0246204623680199DB6802B0BDE843
:10CED0001040184702B010BD08B5FFF7EBFF08BDC2
:10CEE00003689B68184738B50D210546FFF7F8FF22
:10CEF0000A2104462846FFF7F3FF204438BD38B521
:10CF00000546FFF7D7FF04462846FFF7ECFF20440D
:10CF100038BD0023012A98BF0A2230B58BB08DF8A6
:10CF2000243009AC0D46B1FBF2F101FB125303F0C2
:10CF3000FF03092B94BF30333733DBB2AA4204F826
:10CF4000013DEFD92146FFF7B5FF0BB030BD2DE90C
:10CF5000F04186B000AF05460E46381D1421144638
:10CF60003B60FFF763FC13280ED82846391DFFF7F6
:10CF7000A1FF04461EB12846FFF7B5FF0444204632
:10CF80001837BD46BDE8F08100F1080323F0070320
:10CF9000E846ADEB030D2246411C3B686846FFF7AF
:10CFA00045FC69462846FFF785FF0446C546E1E78C
:10CFB00010B50446FEF7BEFFE060236820465B69BB
:10CFC0009847002808DAFEF7B5FFE368C01AA3689F
:10CFD0009842F2D34FF0FF3010BD2DE9F0410746E3
:10CFE0000C460D468E18B542A5EB040807D038460E
:10CFF000FFF7DEFF031E02DB05F8013BF3E74046C7
:10D00000BDE8F081014B024A1A60704738AE071044
:10D0100064FC3F02024B1A68024B1A60704700BF63
:10D020000CAC07103CAE07100021FFF7AFBA0000B0
:10D030000022014B9A60704740AE0710014B186008
:10D04000704700BF10AC071008B50F4B43B100F09C
:10D050008DF903681B699847002801DD00E000BFD7
:10D060000A4B43B100F0A4FF03681B6998470028EE
:10D0700001DD00E000BF064B0BB100F0DFFF054B08
:10D080000BB101F011F808BD000000000000000025
:10D09000000000000000000008B5FFF7D5FFFEF714
:10D0A00049FF014B186008BD4CAF07100548064A00
:10D0B00008B5121A054901F069F9054B054A1A60CD
:10D0C00008BD00BF00B4071004B4071018F95F08CA
:10D0D00000B407101E1C279A002307B51A466FF0EC
:10D0E00077010093FFF76EFA03B05DF804FB0000D0
:10D0F00007B543880A2B08D0502B0BD1094B1B686E
:10D100004BB103B05DF804EB1847FFF7E5FF03B040
:10D110005DF804FB00231A466FF077010093FFF7D8
:10D1200051FAF4E754AE0710002110B51148FFF78B
:10D13000B5FB114B1A68114B9A420CBF0122002219
:10D140000F4B1A7001D0FFF7B1FFFEF7C9FE04467E
:10D1500001F032F90B4B13B1204600E000BF002173
:10D160000848FFF72BFBBDE8104000210648FFF7F9
:10D170001BBA00BFD5DB3F0200B407101E1C279A64
:10D1800050AE07100000000089DC3F02704710B568
:10D1900004461821FCF773FC204610BDF0B5037D52
:10D1A0000E46062B4FF000048DB000F1040712D09C
:10D1B00000F1080515F8011D0A223046FFF7A9FE07
:10D1C000AF42044419D0002CF4D02E213046FFF792
:10D1D00087FE0444EEE72F236A4639460A208DF87D
:10D1E0000040FEF7D1FE6846FCF720FC336802469B
:10D1F00069463046DB689847044620460DB0F0BDCE
:10D2000010B50446044B1122002140F8043B01F004
:10D21000CAF8204610BD00BF8CFC3F020346074AF7
:10D2200010B543F8042B01F1100251F8044B914260
:10D2300043F8044BF9D10A781A7010BD8CFC3F02F8
:10D24000037D042B04D14068003818BF01207047CB
:10D25000062B07D143683BB983682BB9C3681BB958
:10D260000069F1E7002070470120704710B59DF874
:10D27000084044EA032343EA0242042342EA0161EC
:10D280004160037510BD000007B5064B0360CB7805
:10D2900000938B784A780978FFF7E8FF03B05DF8D0
:10D2A00004FB00BF8CFC3F0241747047704770471D
:10D2B00008B50021007CFFF7F9F840EAE07008BDEE
:10D2C00008B50121007CFFF7F1F840EAE07008BDE5
:10D2D00008B5007CFFF7DCF820EAE07008BD08B56F
:10D2E000007CFFF7C7F820EAE07008BD13B50446DC
:10D2F000007C0191FFF7CCF80028019901DC607CEB
:10D3000020B1207CFFF7E0F820EAE07002B010BD09
:10D31000007CFFF7E7B810B504461421FCF7AFFB1B
:10D32000204610BD10B54FF47A730446084600211C
:10D33000C4E90113044B2074236001231146637474
:10D34000FFF77CF8204610BDA0FC3F020022007CC5
:10D35000FFF782B8007CFFF7D3B810B5044614225B
:10D36000002101F020F8204610BD000010B588B063
:10D3700003A8FFF7F2FF0C4CD4E88F1F11F0010156
:10D380000FD120460191FCF789FB019948B103AA0E
:10D390000648FFF7C7FF2046FCF785FB044800F06E
:10D3A000EFFF024808B010BD58AE07105CAE071082
:10D3B00045DE3F02826810B50AB900F0CBFEC368B3
:10D3C000BDE8104018470000F8B5104F064657F862
:10D3D00020400D4634B12046FFF7F3FB10212046D4
:10D3E000FCF74DFB1020FCF746FB044650B1002330
:10D3F0008360AB6833B1022229469847EB68E3604B
:10D40000AB68A360204647F82640F8BD70AE071011
:10D41000F0B5054687B017461E460391FEF728FD76
:10D4200028460399FFF7D0FF0446D8B10021042312
:10D430008E428DF81030A8BF9DF83030CDF8111015
:10D44000A4BF04A98DF81230024600913B4628463D
:10D450000649A8BF8DF81160FEF7FCFC10B1002052
:10D4600007B0F0BD201E18BF0120F9E74DDF3F02D5
:10D47000FEF71ABDFEF70ABD70474174704708B544
:10D48000007CFEF7FFFD20EAE07008BD08B5007CD7
:10D49000FEF7B2FD20EAE07008BD08B5007CFEF79B
:10D4A000C7FD40EAE07008BD08B5007CFEF7B2FD9C
:10D4B00040EAE07008BD007CFEF7C8BD37B5457C8A
:10D4C00004462DB1207C03B0BDE83040FEF786BD98
:10D4D000007C0191FEF7D6FD00280199F2DC284678
:10D4E00003B030BD10B504461421FCF7C8FA20463D
:10D4F00010BD000010B54FF47A730446084611467B
:10D500000022C4E90123044B2074236001236374C7
:10D51000FEF7D4FD204610BDD4FC3F020023007C62
:10D52000FEF7BEBD0022FFF7F9BF007CFEF79CBDF1
:10D530007047F8B5064615460C468F18BC4206D013
:10D54000336830469B6814F8011B9847F6E7284675
:10D55000F8BD0022007CFEF7E9BD0021007CFEF74B
:10D56000F3BD0021007CFEF7FDBD0021007CFEF72D
:10D5700007BE0021007CFEF711BE10B50446142141
:10D58000FCF77DFA204610BD0022C0E900221822D7
:10D5900002800A7802714A688260CA68C2600A7AA8
:10D5A00002610A694261704738B5044615464FF476
:10D5B0007A730022C4E90123094B084621742360D1
:10D5C0002946FEF707FEBF3008D16B69DB0705D59A
:10D5D0006868FFF70FF9E868FFF70CF9204638BDD7
:10D5E00008FD3F020023007C1A461946FEF774BD71
:10D5F00010B5044686B06846FFF7C6FF00226946AC
:10D60000207CFEF7F5FD06B010BD7FB58DF8041047
:10D6100000214FF0640C5B1A18BF0123CDE904C14F
:10D6200001A902928DF80C30FFF7E2FF07B05DF818
:10D6300004FB0123FFF7E9BF0022007CFEF75ABD7F
:10D64000C9B2FFF7F9BF0022007CFEF761BD0121DE
:10D65000FFF7F9BFFF210022044B0120C3E90012AC
:10D6600064211A61C3E90201704700BFE0AE0710F0
:10D6700013B503688DF807101C6C01224FF0FF33BF
:10D680000DF10701A04702B010BD10B403681C6C77
:10D690004FF0FF33A4465DF8044B604713B51346C3
:10D6A00002688DF80710146C0DF107010122A047E4
:10D6B00002B010BD10B543690446B3F88620B3F834
:10D6C00084309A4208D06369B3F88420511CA3F8CF
:10D6D00084101344187910BD03681B69984700280B
:10D6E000F1D14FF0FF30F6E7704743691868C04347
:10D6F000C00F704770470000064B10B5994200F10B
:10D700000C0405D0084600F029FD002808BF0024BD
:10D71000204610BD5CFC3F0210B50446AC21FCF76E
:10D72000AEF9204610BDAC21FCF7A9B92DE9F041B6
:10D730004FF000081C4686B0C0F8048005460E462F
:10D7400017464146102202A800F02DFE631C09D0A6
:10D750004FF47A73B4FBF3F203FB12445C43CDE95C
:10D760000228049410236869009341F2050240F6F0
:10D77000FF71006802ABFEF749FD002807DAFFF7EA
:10D7800071F8036800206B6006B0BDE8F08168693D
:10D7900000233A4631460068FEF770FD031EEEDBBB
:10D7A0001846F1E730B5044687B06846FFF76CFDD0
:10D7B00001AD04340FCD0FC42B68237007B030BD0A
:10D7C00070B5044606464D69044B8C3544F8043B5D
:10D7D0000FCD0FC42B683046237070BD8CFC3F0208
:10D7E0002DE9F0430D4600249846036893B01B6B67
:10D7F00006461746984728466B462246214600941F
:10D80000FEF7D4FA0546002863D1009B002B4BD0CD
:10D810005B69002B48D006A8FFF7F2FC009B5C690F
:10D820006378022B04D1211D06A8FFF7BBFF26E079
:10D830000A2B24D11122294601A800F0B4FDA368C7
:10D84000002B38D004F108030DF1040C18346246A3
:10D8500018685968083303C2A3429446F7D10623D7
:10D8600001A90CA88DF8143007ACFFF7D7FC0DF117
:10D87000340CBCE80F000FC4DCF80030237006A89D
:10D88000FFF7DEFC80B133680DACD3F82490124B67
:10D8900007AD0C930FCD0FC42B683A46237030466A
:10D8A00043460CA9C84705460098FEF771FA28467A
:10D8B00013B0BDE8F083E368002BC3D14FF6FF70CF
:10D8C000D4F81090FEF76EFB8145BBD104F1140132
:10D8D000AAE72546E8E700BF8CFC3F0238B543695C
:10D8E00005461A68002A10DAB3F88620B3F88430A7
:10D8F0009A420AD103681B699847044628B92B68E5
:10D9000028461B6B9847204638BD0120FCE710B520
:10D9100043690446B3F88620B3F884309A4205D0B0
:10D920006369B3F884201344187910BD03681B6938
:10D9300098470028F4D14FF0FF30F6E7F8B5436977
:10D940001746B3F88620B3F8843005469A420E464F
:10D9500016D069693046B1F88430B1F88640E41ACF
:10D96000BC4228BF3C4604332246194400F00EFD59
:10D970006A69B2F884302344A2F884302046F8BDA6
:10D9800003681B6998470028E3D14FF0FF34F5E79F
:10D9900000234269A2F884304269A2F886307047B9
:10D9A000F0B50C461F4603688BB01B6B0546164648
:10D9B0009847237D0622042B0CBF02200A20012158
:10D9C000FEF76AFC6B6918606B691B68002B07DA4D
:10D9D0002B6828461B6B0024984720460BB0F0BDEF
:10D9E0002846FFF7D5FFB7B1002303A9F8B2039388
:10D9F000ADF81030FEF766FA0028E9D10623686911
:10DA0000009341F20B0240F6FF71006803ABFEF792
:10DA1000FDFB0028DCD11C22002103A800F0C3FC80
:10DA2000237D042B1DD14FF407733046ADF80C3025
:10DA3000FEF7C6FAADF80E006068FEF7B3FA049080
:10DA40006B691C22186803A9FEF7FCFB0028BFD1F4
:10DA50006D6904348C350FCC0FC5236801242B70FD
:10DA6000BBE740F61C233046ADF80C30FEF7A8FAB1
:10DA700005AEADF80E00231D04F1140732461868F8
:10DA80005968083303C2BB421646F7D1D8E70000F5
:10DA900030B542690446B2F886308BB02BB1B2F88B
:10DAA00084209A4201D1FFF773FF6169086800285A
:10DAB00018DBB1F886507F2D14D804310823C5F146
:10DAC00080022944FEF7CCFB002813DD6369B3F81C
:10DAD00086200AB9A3F884206369B3F8862010442D
:10DAE000A3F886006369B3F88600B3F88430C01ADF
:10DAF0000BB030BDFEF7B6FE03680B2BF2D0FEF77D
:10DB0000B1FE03680B2BEDD020230025CDE90235B3
:10DB1000FEF7A8FE036802AA0193084B32200849C9
:10DB200000932B46FEF708FD63691868FEF77CFB3F
:10DB30004FF0FF3263691A60D4E700BF33FD3F0244
:10DB40002CFD3F0210B5436904461868002801DB2C
:10DB5000FEF76AFB4FF0FF32636900211A606069CB
:10DB600011228C3000F01FFC2046BDE81040FFF76A
:10DB70000FBF002310B504460160C0F88430883020
:10DB8000FFF73EFB204610BD00234FF47A7273B5B9
:10DB9000C0E901320E4A0361026043610446AC20D1
:10DBA0000191FBF768FF051E05F10C0608D0012363
:10DBB000C5E90133074B304601992B60FFF7D9FFC8
:10DBC0002046C4E90565FFF7E3FE02B070BD00BF63
:10DBD00068FD3F024CFD3F0210B504464FF0FF3197
:10DBE000FFF7D2FF204610BD10B50446006800289C
:10DBF00001DBFEF719FB204610BD0C30FFF7F4BF28
:10DC0000002240681146FEF715BD0022406811460B
:10DC1000FEF748BD002240681146FEF77BBD00229A
:10DC20004068FEF769BD0022406881F00101FEF7FF
:10DC30002BBD002340681A461946FEF717BD002386
:10DC400040681A461946FEF703BD00224068114697
:10DC5000FEF7D4BC002202214068FEF7DDBC0023A1
:10DC600040681A46FEF7BCBC0422024B5A60024AC6
:10DC70001A607047F4AE0710B8FD3F0200234068F9
:10DC80001A46FEF7ADBC002202214068FEF7C4BC74
:10DC9000002240681146FEF7B1BC002240681146E0
:10DCA000FEF7C8BC002340681A461946FEF7D0BCF0
:10DCB000002340681A461946FEF7D8BC0021406888
:10DCC000FEF736BD00214068FEF740BD00224068E7
:10DCD00081F00101FEF7D8BC00224068FEF70CBDC0
:10DCE000002240681146FEF715BD0022406811462B
:10DCF000FEF7D8BC00214068FEF744BD2DE9F04393
:10DD000095B014460D460746FFF77AFA00211C220B
:10DD10000DA8009100F047FB402320460C93002102
:10DD20006B460CAAFEF742F8044600284BD1024687
:10DD300001216868FEF77EFC022180462246686861
:10DD4000FEF778FC21468146009E002E3BD000293C
:10DD500039D17368022B03D00A2B11D0F669F4E78E
:10DD6000B8F1000FFAD0716906A804313C1D07AD67
:10DD7000FFF78AFA0FCD0FC42B6841462370EDE7F9
:10DD8000B9F1000FEAD0102201A8746900F00BFB72
:10DD9000062301AD8DF8143004F1080318342A4627
:10DDA00018685968083303C2A3421546F7D101A980
:10DDB00006A83C1D07ADFFF731FA0FCD0FC42B6845
:10DDC00049462370CAE70098FDF7E2FF384615B0D0
:10DDD000BDE8F083033802289ABF024B53F82000B5
:10DDE00001487047F4FD3F02FCAE071008B5002261
:10DDF0004068FEF7B9FCBDE80840FFF7EBBF000044
:10DE0000024B034A1A6000225A607047FCAE0710AA
:10DE100008FE3F02FDF7F4BF1B2837B5044602D9C0
:10DE2000002003B030BDA0F10F03022B0BD9012855
:10DE300021D800F069F90021007CFEF7BDF980F0DF
:10DE40000100C0B2EDE7114DD5E88F1F11F00101BF
:10DE50000BD128460191FBF721FE019928B10C480E
:10DE6000FEF76EFD2846FBF71EFE094B1878FEF7FD
:10DE700075FA0028D4D1083C012C05D800F098F898
:10DE8000007CFEF7F1F8DAE70120CAE710AE0710D0
:10DE900014AE07101B2838B504460D460AD8FF29D2
:10DEA00008D0FFF7B9FF28B129462046BDE8384021
:10DEB000FDF798BF38BD38B504460D46FDF7A0FF05
:10DEC000FF2810D0062804D84D2323FA00F0C307FA
:10DED00009D42046FFF7A0FF28B129462046BDE817
:10DEE0003840FDF79BBF38BD10B50446FDF788FFED
:10DEF000031FDBB2012B08D92046FFF78DFF20B1AD
:10DF00002046BDE81040FDF797BF002010BD2DE969
:10DF1000F04190461F46072406460D46C4F107010E
:10DF2000B8F1000F12D147FA01F1304601F00101BA
:10DF3000FFF7C1FF01212846FFF7BDFF002128465A
:10DF4000FFF7B9FF013CE9D2BDE8F08147FA04F1DF
:10DF5000EBE7704738B5142504462A46002100F047
:10DF600022FA25804025074928462581258200F090
:10DF7000EFF804496060284600F0EAF8E0602046C7
:10DF800038BD00BF44FE3F027047704710B50446DD
:10DF9000FFF7E0FF204610BD10B50446FFF7DAFF9B
:10DFA000204610BD10B50446FFF7D4FF204610BD33
:10DFB00030B50E4D87B0D5E88F1F11F0010411D197
:10DFC0002846FBF76BFD68B101A8FFF7DFFF21468C
:10DFD00001AA0748FFF78EFA2846FBF764FD0548BB
:10DFE00000F0CEF9024807B030BD00BF04AF071003
:10DFF00010AF0710EBEA3F0210B50D4C86B0D4E825
:10E000008F3FDB0711D42046FBF748FD68B101A81C
:10E01000FFF7C2FF012101AA0648FFF76BFA20466D
:10E02000FBF741FD044800F0ABF9024806B010BD13
:10E0300008AF071024AF071023EB3F0210B5FFF71E
:10E04000DBFF074B044653B1FFF76FFA38B1236883
:10E0500020461B699847002801DD00E000BF10BD85
:10E060000000000010B50D4C86B0D4E88F3FDB07F0
:10E0700011D42046FBF712FD68B101A8FFF792FF0B
:10E08000022101AA0648FFF735FA2046FBF70BFDEF
:10E09000044800F075F9024806B010BD0CAF071037
:10E0A00038AF071021EB3F0210B5FFF7DBFF074B3E
:10E0B000044653B1FFF739FA38B1236820461B698B
:10E0C0009847002801DD00E000BF10BD00000000FF
:10E0D0007047000038B50A4B044603600123094924
:10E0E0004361202000F034F820256060054928466F
:10E0F000A56000F02DF8C4E90305204638BD00BF37
:10E100001800010044FE3F0230B50E4D87B0D5E83F
:10E110008F1F11F0010411D12846FBF7BFFC68B135
:10E120006846FFF7D7FF6A4621460748FFF73CFAE3
:10E130002846FBF7B8FC054800F022F9024807B072
:10E1400030BD00BF50AF071054AF071069EC3F025D
:10E15000FBF793BC08B5FEF777FB0000014900F020
:10E16000F9B800BF60FE3F027FB5002410231546BA
:10E170001268CDE902340368CDE900449E696B461C
:10E18000B0479DF8043003F00603062B05BF009B43
:10E19000012020462B6004B070BD0098904214BF4F
:10E1A0000120062070470000034B10B504460360B1
:10E1B00000F0CDF8204610BDA0FE3F0210B5044689
:10E1C000FFF7F2FF08212046FBF759FC204610BD5F
:10E1D0002DE9F041DDF818801F4606461546DDE9B9
:10E1E0000834984507D1079900F0B4F818B1657163
:10E1F0000020BDE8F0813946304600F0ABF8002839
:10E20000F6D00123C4F800802571A371F0E738B57A
:10E2100015461C4600F09EF820B108232560E360F7
:10E220000623237138BD73B505460C461E46019280
:10E2300000F090F850B9032E08D823682946019AB7
:10E2400020465B6902B0BDE87040184702B070BD5F
:10E25000034B10B504460360FFF7A6FF204610BD30
:10E2600000FF3F0210B50446FFF7F2FF0C212046E5
:10E27000FBF705FC204610BDF7B5089F05460E4686
:10E28000144697420AD0A868314602680897156A72
:10E290002246AC4603B0BDE8F04060471946019302
:10E2A00000F058F8019B0028EDD0062003B0F0BD27
:10E2B0002DE9F14F0D461946814617469846DDE98E
:10E2C0000A4BDDE90CA600F045F890B1002D346052
:10E2D000377109DB61198A450CBF06210121B17133
:10E2E000002001B0BDE8F08F0235F9D10123B371F0
:10E2F000F6E7544506D15946484600F02BF808B1D8
:10E300007771EDE7D9F808003A4629460368CDE968
:10E310000CA6CDE90A4BDC694346A44601B0BDE832
:10E32000F04F60472DE9F04107460C4615461E4662
:10E33000FFF76DFF48B9B8682A46214603689F6910
:10E340003346BC46BDE8F0416047BDE8F081704708
:10E3500000207047814208B50ED0406803782A2B10
:10E360000CD049680B782A2B08BF0131FBF754FB0E
:10E37000B0FA80F0400908BD0120FCE70020FAE770
:10E38000002301461A46184600F044B80A44431ECA
:10E39000914200D1704710B511F8014B914203F83A
:10E3A000014FF9D110BD02440346934200D170479A
:10E3B00003F8011BF9E7000038B5104B04461D684F
:10E3C000AB6BB3B91820FEF707FA0246A86320B971
:10E3D0000B4B42210B48FEF753FA0B490B4BC0E99C
:10E3E00000130B4B002183600B2383810120C2E9C2
:10E3F0000401AB6B00221C615A6138BD10AC0710E0
:10E4000039FF3F0250FF3F020E33CDAB34126DE6B1
:10E41000ECDE05002DE9F843DFF8BC8006461F4618
:10E420000D46D8F80000914600F058F8264B1C68BD
:10E4300034B9264C1C60264B13B11B68C4F88830D5
:10E4400063681F2B07DDD8F8000000F049F84FF093
:10E45000FF30BDE8F8835EB3D4F8880088B91D4B5F
:10E4600023B9D8F8000000F03AF8F0E74FF48470D0
:10E47000FEF7B2F90028F4D00023C0E94033C4F815
:10E48000880063680122022E40F8239002FA03F20A
:10E4900000EB8301D0F8003143EA0203C0F80031F9
:10E4A000C1F8807002BFD0F804311343C0F80431C2
:10E4B0006368D8F800005A1C0233626044F82350A5
:10E4C00000F00EF80020C4E7F4AF071068AF0710A3
:10E4D0000000000071D33F0274AC07107047704712
:10E4E0007047000000007EFF06000100000000EF02
:10E4F000D5A53F02FDA53F0201A63F020000000096
:10E5000043616C6C206F6E20707572652076697245
:10E510007475616C004E6F204368616E6765202DD5
:10E520002043616E63656C6C696E6720434D440ADD
:10E53000007B226F6E223A747275652C22736174AF
:10E54000223A002C22627269223A002C22687565F8
:10E55000223A007B226F6E223A66616C73657D0001
:10E5600053656E64696E6720436F6D6D616E6420E4
:10E57000746F204875653A2025730A005055542061
:10E580002F6170692F002F6C69676874732F002FDB
:10E59000737461746520485454502F312E310048F3
:10E5A0006F73743A2000436F6E74656E742D4C6502
:10E5B0006E6774683A2000436F6E74656E742D54F4
:10E5C0007970653A20746578742F706C61696E3B60
:10E5D000636861727365743D5554462D38005377F6
:10E5E00069746368696E67204F6E2057656D6F2090
:10E5F0002325690A003C3F786D6C2076657273694B
:10E600006F6E3D22312E302220656E636F64696E1D
:10E61000673D227574662D38223F3E3C733A456E45
:10E6200076656C6F706520786D6C6E733A733D2201
:10E63000687474703A2F2F736368656D61732E78F8
:10E640006D6C736F61702E6F72672F736F61702FB7
:10E65000656E76656C6F70652F2220733A656E6308
:10E660006F64696E675374796C653D226874747069
:10E670003A2F2F736368656D61732E786D6C736FBD
:10E6800061702E6F72672F736F61702F656E636F8D
:10E6900064696E672F223E3C733A426F64793E3C58
:10E6A000753A53657442696E617279537461746529
:10E6B00020786D6C6E733A753D2275726E3A4265C4
:10E6C0006C6B696E3A736572766963653A62617301
:10E6D00069636576656E743A31223E3C42696E61CB
:10E6E000727953746174653E313C2F42696E617278
:10E6F0007953746174653E3C2F753A536574426971
:10E700006E61727953746174653E3C2F733A426F47
:10E7100064793E3C2F733A456E76656C6F70653E4A
:10E7200000504F5354202F75706E702F636F6E74AE
:10E73000726F6C2F62617369636576656E743120E8
:10E74000485454502F312E3100436F6E74656E74EF
:10E750002D547970653A20746578742F786D6C3B10
:10E7600020636861727365743D7574662D3800535B
:10E770004F4150414354494F4E3A202275726E3AF0
:10E7800042656C6B696E3A736572766963653A626D
:10E79000617369636576656E743A312353657442BB
:10E7A000696E61727953746174652200436F6E6E95
:10E7B000656374696F6E3A206B6565702D616C6975
:10E7C000766500537769746368696E67204F666683
:10E7D0002057656D6F20232569200A003C3F786D26
:10E7E0006C2076657273696F6E3D22312E30222067
:10E7F000656E636F64696E673D227574662D38229D
:10E800003F3E3C733A456E76656C6F706520786D5F
:10E810006C6E733A733D22687474703A2F2F736371
:10E8200068656D61732E786D6C736F61702E6F7299
:10E83000672F736F61702F656E76656C6F70652FD3
:10E840002220733A656E636F64696E675374796CE6
:10E85000653D22687474703A2F2F736368656D612B
:10E86000732E786D6C736F61702E6F72672F736F7C
:10E8700061702F656E636F64696E672F223E3C7313
:10E880003A426F64793E3C753A53657442696E61F1
:10E890007279537461746520786D6C6E733A753D4E
:10E8A0002275726E3A42656C6B696E3A7365727668
:10E8B0006963653A62617369636576656E743A315E
:10E8C000223E3C42696E61727953746174653E30D8
:10E8D0003C2F42696E61727953746174653E3C2FBE
:10E8E000753A53657442696E6172795374617465E7
:10E8F0003E3C2F733A426F64793E3C2F733A456E2B
:10E9000076656C6F70653E00496F544E6574776F25
:10E91000726B002E000A0A00424D4520617420618E
:10E92000646472657373202569206661696C65642F
:10E9300020746F2073746172740A0054656D703AAC
:10E9400020006E616E00696E66006F766600506131
:10E950007061204475636B006F6E4F666620256999
:10E960000A00456E636F64657220706F7369746925
:10E970006F6E2025690A005475726E696E67206F8C
:10E980006E20487565232025690A005475726E69EA
:10E990006E67206F6E2057656D6F232025690A0012
:10E9A0005475726E696E67206F66662057656D6F6D
:10E9B000232025690A003139322E3136382E312E86
:10E9C0003330003139322E3136382E312E3331008A
:10E9D0003139322E3136382E312E33320031393240
:10E9E0002E3136382E312E3333003139322E313636
:10E9F000382E312E3334003139322E3136382E3123
:10EA00002E3335004D516C5A7A69524F3057616937
:10EA1000354D734D486C6C3878415541517177389C
:10EA20003551727238744D3337463354000000004C
:10EA30000000FF0000A5FF0000FFFF0000800000B5
:10EA4000FF00000082004B00D30094003139322EC9
:10EA50003136382E312E350064656661756C742050
:10EA6000004D5342004C5342003C5350495365748F
:10EA700074696E67732064656661756C743E003CF2
:10EA800053504953657474696E67732025732575F7
:10EA9000202573204D4F444525753E0000000000A1
:10EAA00000000000B9B33F02A9B33F02ABB33F027D
:10EAB0005350492F5350493120696E746572666115
:10EAC0006365206E6F7420646566696E65642100FD
:10EAD000506978656C2074797065206E6F7420734E
